{
  "contractName": "Documents",
  "abi": [
    {
      "constant": true,
      "inputs": [
        {
          "internalType": "bytes32",
          "name": "",
          "type": "bytes32"
        }
      ],
      "name": "store",
      "outputs": [
        {
          "internalType": "address",
          "name": "",
          "type": "address"
        }
      ],
      "payable": false,
      "stateMutability": "view",
      "type": "function"
    },
    {
      "constant": false,
      "inputs": [
        {
          "internalType": "bytes32",
          "name": "_hash",
          "type": "bytes32"
        }
      ],
      "name": "register",
      "outputs": [],
      "payable": false,
      "stateMutability": "nonpayable",
      "type": "function"
    },
    {
      "constant": true,
      "inputs": [
        {
          "internalType": "bytes32",
          "name": "__hash",
          "type": "bytes32"
        }
      ],
      "name": "verify",
      "outputs": [
        {
          "internalType": "bool",
          "name": "",
          "type": "bool"
        }
      ],
      "payable": false,
      "stateMutability": "view",
      "type": "function"
    }
  ],
  "bytecode": "0x608060405234801561001057600080fd5b506102c6806100206000396000f3fe608060405234801561001057600080fd5b50600436106100415760003560e01c8063654cf88c1461004657806375e36616146100b4578063e1fa8e84146100fa575b600080fd5b6100726004803603602081101561005c57600080fd5b8101908080359060200190929190505050610128565b604051808273ffffffffffffffffffffffffffffffffffffffff1673ffffffffffffffffffffffffffffffffffffffff16815260200191505060405180910390f35b6100e0600480360360208110156100ca57600080fd5b810190808035906020019092919050505061015b565b604051808215151515815260200191505060405180910390f35b6101266004803603602081101561011057600080fd5b81019080803590602001909291905050506101d5565b005b60006020528060005260406000206000915054906101000a900473ffffffffffffffffffffffffffffffffffffffff1681565b60008073ffffffffffffffffffffffffffffffffffffffff1660008084815260200190815260200160002060009054906101000a900473ffffffffffffffffffffffffffffffffffffffff1673ffffffffffffffffffffffffffffffffffffffff16146101cb57600190506101d0565b600090505b919050565b600073ffffffffffffffffffffffffffffffffffffffff1660008083815260200190815260200160002060009054906101000a900473ffffffffffffffffffffffffffffffffffffffff1673ffffffffffffffffffffffffffffffffffffffff16141561028e573360008083815260200190815260200160002060006101000a81548173ffffffffffffffffffffffffffffffffffffffff021916908373ffffffffffffffffffffffffffffffffffffffff1602179055505b5056fea265627a7a723158205fe6901862fcc73170ec47fd40f2d39cb5f13dc6fe20a0b9690de01cbb623adb64736f6c63430005100032",
  "source": "pragma solidity >=0.4.21 <0.7.0;\r\n//SPDX-License-Identifier: AFL-3.0\r\n\r\ncontract Documents {\r\n  mapping (bytes32 => address) public store;\r\n\r\n  function register (bytes32 _hash) public\r\n  {\r\n    if (store[_hash] == address(0)){\r\n       store[_hash] = msg.sender;\r\n    }\r\n  }\r\n\r\n  function verify (bytes32 __hash) public view returns (bool)\r\n  {\r\n    if (store[__hash] != address(0)){\r\n      return true;\r\n    }\r\n    return false;\r\n  }\r\n}\r\n",
  "sourcePath": "C:\\Users\\Lenovo\\OneDrive\\Dokumente\\UNI\\6. Semester\\Praktikum Blockchain\\DAD\\Doc_Authenticator_Dapp\\contracts\\Documents.sol",
  "compiler": {
    "name": "solc",
    "version": "0.5.16+commit.9c3226ce.Emscripten.clang"
  },
  "schemaVersion": "3.1.0",
  "updatedAt": "2020-06-21T12:47:58.570Z",
  "devdoc": {
    "methods": {}
  },
  "userdoc": {
    "methods": {}
  }
}