{
  "contractName": "Documents",
  "abi": [
    {
      "constant": true,
      "inputs": [
        {
          "internalType": "string",
          "name": "",
          "type": "string"
        }
      ],
      "name": "store",
      "outputs": [
        {
          "internalType": "address",
          "name": "",
          "type": "address"
        }
      ],
      "payable": false,
      "stateMutability": "view",
      "type": "function"
    },
    {
      "constant": false,
      "inputs": [
        {
          "internalType": "string",
          "name": "hash",
          "type": "string"
        }
      ],
      "name": "verify",
      "outputs": [
        {
          "internalType": "bool",
          "name": "",
          "type": "bool"
        }
      ],
      "payable": false,
      "stateMutability": "nonpayable",
      "type": "function"
    },
    {
      "constant": false,
      "inputs": [
        {
          "internalType": "string",
          "name": "_hash",
          "type": "string"
        }
      ],
      "name": "register",
      "outputs": [],
      "payable": false,
      "stateMutability": "nonpayable",
      "type": "function"
    }
  ],
  "bytecode": "0x608060405234801561001057600080fd5b50610588806100206000396000f3fe608060405234801561001057600080fd5b50600436106100415760003560e01c8063131a068014610046578063bb9c6c3e14610141578063f2c298be14610214575b600080fd5b6100ff6004803603602081101561005c57600080fd5b810190808035906020019064010000000081111561007957600080fd5b82018360208201111561008b57600080fd5b803590602001918460018302840111640100000000831117156100ad57600080fd5b91908080601f016020809104026020016040519081016040528093929190818152602001838380828437600081840152601f19601f8201169050808301925050505050505091929192905050506102cf565b604051808273ffffffffffffffffffffffffffffffffffffffff1673ffffffffffffffffffffffffffffffffffffffff16815260200191505060405180910390f35b6101fa6004803603602081101561015757600080fd5b810190808035906020019064010000000081111561017457600080fd5b82018360208201111561018657600080fd5b803590602001918460018302840111640100000000831117156101a857600080fd5b91908080601f016020809104026020016040519081016040528093929190818152602001838380828437600081840152601f19601f820116905080830192505050505050509192919290505050610318565b604051808215151515815260200191505060405180910390f35b6102cd6004803603602081101561022a57600080fd5b810190808035906020019064010000000081111561024757600080fd5b82018360208201111561025957600080fd5b8035906020019184600183028401116401000000008311171561027b57600080fd5b91908080601f016020809104026020016040519081016040528093929190818152602001838380828437600081840152601f19601f8201169050808301925050505050505091929192905050506103e9565b005b6000818051602081018201805184825260208301602085012081835280955050505050506000915054906101000a900473ffffffffffffffffffffffffffffffffffffffff1681565b60008073ffffffffffffffffffffffffffffffffffffffff166000836040518082805190602001908083835b602083106103675780518252602082019150602081019050602083039250610344565b6001836020036101000a038019825116818451168082178552505050505050905001915050908152602001604051809103902060009054906101000a900473ffffffffffffffffffffffffffffffffffffffff1673ffffffffffffffffffffffffffffffffffffffff16146103df57600190506103e4565b600090505b919050565b600073ffffffffffffffffffffffffffffffffffffffff166000826040518082805190602001908083835b602083106104375780518252602082019150602081019050602083039250610414565b6001836020036101000a038019825116818451168082178552505050505050905001915050908152602001604051809103902060009054906101000a900473ffffffffffffffffffffffffffffffffffffffff1673ffffffffffffffffffffffffffffffffffffffff16141561055057336000826040518082805190602001908083835b602083106104de57805182526020820191506020810190506020830392506104bb565b6001836020036101000a038019825116818451168082178552505050505050905001915050908152602001604051809103902060006101000a81548173ffffffffffffffffffffffffffffffffffffffff021916908373ffffffffffffffffffffffffffffffffffffffff1602179055505b5056fea265627a7a7231582069aa6acb8ccc8cf0e3ca54c5e18d7ceddec9146c0e7f79d5e9460c02f6c1e50e64736f6c63430005100032",
  "source": "pragma solidity >=0.4.21 <0.7.0;\r\n\r\ncontract Documents {\r\n  \r\n  mapping (string => address) public store;\r\n\r\n  function verify(string memory hash) public returns (bool)\r\n  {\r\n    if (store[hash] != address(0)){\r\n      return true;\r\n    }\r\n    return false;\r\n  }\r\n\r\n  function register (string memory _hash) public\r\n  {\r\n    if (store[_hash] == address(0)){\r\n       store[_hash] = msg.sender;\r\n    }\r\n  }\r\n}\r\n",
  "sourcePath": "C:\\Users\\Lenovo\\OneDrive\\Dokumente\\UNI\\6. Semester\\Praktikum Blockchain\\DAD\\Doc_Authenticator_Dapp\\contracts\\Documents.sol",
  "compiler": {
    "name": "solc",
    "version": "0.5.16+commit.9c3226ce.Emscripten.clang"
  },
  "schemaVersion": "3.1.0",
  "updatedAt": "2020-06-09T10:58:17.316Z",
  "devdoc": {
    "methods": {}
  },
  "userdoc": {
    "methods": {}
  }
}